:100000000C942A000C9497090C94CA090C94FD09CD
:100010000C9447000C9447000C9447000C94470044
:100020000C9447000C9447000C9429070C9471071A
:100030000C9447000C9447000C9447000C94470024
:100040000C9447000C9447000C9447000C94470014
:100050000C94470011241FBECFE5D4E0DEBFCDBF16
:1000600011E0A8E6B1E001C01D92A837B107E1F7A1
:1000700011E0A0E6B0E0EAE3F1E202C005900D92E3
:10008000A836B107D9F70E944E100C949B100C941F
:100090000000EF92FF920F931F937B018C0120E0F1
:1000A00030E040E05FE40E94190388238CF0C8012F
:1000B000B70120E030E040E05FE40E94C1010E940F
:1000C00049039B01AC01205030404040504806C0DD
:1000D000C801B7010E9449039B01AC01B901CA01E3
:1000E0001F910F91FF90EF900895A0E0B0E0EBE733
:1000F000F0E00C946410DC012B01FA019C91923029
:1001000008F439C1EB018881823008F433C194309E
:1001100069F4843009F02FC111969C91119789815F
:10012000981709F428C1A0E6B0E025C1843009F48D
:1001300021C18230A9F4923009F01DC19A01AD01AC
:1001400088E0EA010990AE01E90109929E0181501F
:10015000C1F7E201898111969C918923818308C1AD
:10016000923009F407C112962D903C901397EB0141
:100170008A819B811496AD90BD90CD90DC901797AD
:10018000EC80FD800E811F819101281B390BB90184
:1001900037FF04C066277727621B730B6032710537
:1001A0000CF061C0121613066CF537014801062EDB
:1001B00004C096948794779467940A94D2F721E0C8
:1001C00030E040E050E004C0220F331F441F551FB1
:1001D0006A95D2F721503040404050402E213F21B7
:1001E00040235123211531054105510521F021E01E
:1001F00030E040E050E079018A01E628F72808293C
:1002000019293CC0232BD1F1260E371E350146019A
:10021000062E04C096948794779467940A94D2F734
:1002200021E030E040E050E004C0220F331F441FC3
:10023000551F6A95D2F721503040404050402A2146
:100240003B214C215D21211531054105510521F04E
:1002500021E030E040E050E059016A01A628B728CB
:10026000C828D9280BC0821593052CF01C01AA249C
:10027000BB24650103C0EE24FF24870111969C91E5
:10028000D20111968C91981709F445C0992339F041
:10029000A80197012A193B094C095D0906C0A6016E
:1002A00095012E193F09400B510B57FD08C01182D3
:1002B0003382228224833583468357831DC081E0A5
:1002C00081833382228288279927DC01821B930B4A
:1002D000A40BB50B84839583A683B7830DC0220F2F
:1002E000331F441F551F24833583468357838281E0
:1002F000938101979383828324813581468157813D
:10030000DA01C9010197A109B1098F5F9F4FAF4F72
:10031000BF4328F30BC0918333822282EA0CFB1C7B
:100320000C1D1D1DE482F5820683178383E0808304
:10033000248135814681578157FF1AC0C901AA27F8
:1003400097FDA095BA2F81709070A070B0705695EF
:10035000479537952795822B932BA42BB52B848318
:100360009583A683B7838281938101969383828349
:10037000DF0101C0D201CD01CDB7DEB7E2E10C94BF
:100380008010A0E2B0E0E7ECF1E00C94701069831B
:100390007A838B839C832D833E834F835887E9E048
:1003A000EE2EF12CEC0EFD1ECE010196B7010E943F
:1003B0003A058E010F5E1F4FCE010596B8010E94CF
:1003C0003A058A8991E089278A8BC701B801AE0175
:1003D000475E5F4F0E9475000E946504A096E6E0AC
:1003E0000C948C10A0E2B0E0E8EFF1E00C947010F7
:1003F00069837A838B839C832D833E834F835887C5
:10040000F9E0EF2EF12CEC0EFD1ECE010196B701A6
:100410000E943A058E010F5E1F4FCE010596B8016E
:100420000E943A05C701B801AE01475E5F4F0E94C6
:1004300075000E946504A096E6E00C948C10A0E282
:10044000B0E0E5E2F2E00C94641069837A838B8378
:100450009C832D833E834F835887CE010196BE0136
:10046000675F7F4F0E943A05CE010596BE016F5E21
:100470007F4F0E943A059985923088F089898230B1
:10048000C8F0943019F4823051F404C0843029F457
:10049000923081F480E690E0C6C0923049F420E0CA
:1004A0009A858A89981321E02A87CE010996BBC0D4
:1004B000823049F420E09A858A89981321E02A8BBA
:1004C000CE014196B0C02D843E844F8458886D88FB
:1004D0007E888F88988CEE24FF248701AA24BB2471
:1004E000650140E050E060E070E0E0E0F0E0C10174
:1004F00081709070892BE9F0E60CF71C081D191D1E
:100500009A01AB012A0D3B1D4C1D5D1D80E090E062
:10051000A0E0B0E0E614F7040805190520F481E036
:1005200090E0A0E0B0E0BA01A901480F591F6A1F8E
:100530007B1FAA0CBB1CCC1CDD1C97FE08C081E0F5
:1005400090E0A0E0B0E0A82AB92ACA2ADB2A3196B6
:10055000E032F10549F0660C771C881C991C569412
:10056000479437942794C3CFFA85EA892B893C892D
:100570008B859C85280F391F2E5F3F4F17C0CA01FE
:1005800081709070892B61F016950795F794E79428
:1005900080E090E0A0E0B0E8E82AF92A0A2B1B2BC3
:1005A00076956795579547952F5F3F4F77FDE7CF36
:1005B0000CC0440F551F661F771F17FD4160EE0CDE
:1005C000FF1C001F111F21503040403090E05907A0
:1005D00090E0690790E4790760F32B8F3C8FDB0193
:1005E000CA018F779070A070B07080349105A1051A
:1005F000B10561F447FD0AC0E114F10401051105DC
:1006000029F0405C5F4F6F4F7F4F40781A8EFE1786
:1006100011F081E08A8F4D8F5E8F6F8F78A383E01A
:10062000898FCE0149960E946504A096E2E10C9460
:100630008010A8E1B0E0EFE1F3E00C947010698362
:100640007A838B839C832D833E834F83588789E0F5
:10065000E82EF12CEC0EFD1ECE010196B7010E9492
:100660003A058E010F5E1F4FCE010596B8010E941C
:100670003A058985823040F08989823028F0C701A7
:10068000B8010E94B20501C08FEF6896E6E00C94B5
:100690008C10ACE0B0E0EFE4F3E00C9474106983EC
:1006A0007A838B839C83CE010196BE016B5F7F4F63
:1006B0000E943A058D81823061F1823050F18430A0
:1006C00021F48E81882351F12EC02F81388537FD8A
:1006D00020C06E812F3131051CF06623F9F023C054
:1006E0008EE190E0821B930B29853A854B855C85D2
:1006F00004C056954795379527958A95D2F7662376
:10070000B1F050954095309521953F4F4F4F5F4F39
:100710000EC020E030E040E050E009C02FEF3FEF96
:100720004FEF5FE704C020E030E040E050E8B9015F
:10073000CA012C96E2E00C949010A8E0B0E0E3EA45
:10074000F3E00C946C107B018C016115710581053F
:10075000910519F482E0898360C083E089838EE18A
:10076000C82ED12CDC82CB82ED82FE820F831887CB
:10077000C801B7010E941604FC013197F7FF3BC086
:10078000222733272E1B3F0B57016801022E04C07E
:10079000D694C794B794A7940A94D2F740E050E057
:1007A00060E070E081E090E0A0E0B0E004C0880F7D
:1007B000991FAA1FBB1F2A95D2F70197A109B1095A
:1007C0008E219F21A023B1230097A105B10521F01F
:1007D00041E050E060E070E04A295B296C297D2906
:1007E0004D835E836F8378878EE190E08E1B9F0B35
:1007F0009C838B8312C0309781F00E2E04C0EE0CC8
:10080000FF1C001F111F0A94D2F7ED82FE820F8396
:100810001887CE1ADF0ADC82CB821A82CE010196BB
:100820000E9465042896EAE00C948810EF92FF92EB
:100830000F931F937B018C0180E0E81680E0F8069F
:1008400081E0080780E0180788F48FEFE816F104CC
:100850000105110531F028F088E090E0A0E0B0E05B
:1008600017C080E090E0A0E0B0E012C080E0E816A1
:1008700080E0F80680E0080781E0180728F088E1AA
:1008800090E0A0E0B0E004C080E190E0A0E0B0E043
:1008900020E230E040E050E0281B390B4A0B5B0BB4
:1008A00004C016950795F794E7948A95D2F7F70157
:1008B000E859FF4F8081281B310941095109C901BD
:1008C0001F910F91FF90EF900895DF92EF92FF92AA
:1008D0000F931F93FC01E480F58006811781D1807E
:1008E0008081823048F480E090E0A0E1B0E0E82A26
:1008F000F92A0A2B1B2BA5C0843009F49FC0823033
:1009000021F4EE24FF24870105C0E114F104010560
:10091000110519F4E0E0F0E096C0628173819FEF69
:10092000623879070CF05BC022E83FEF261B370BDB
:100930002A3131052CF020E030E040E050E02AC0C0
:10094000B801A701022E04C0769567955795479583
:100950000A94D2F781E090E0A0E0B0E004C0880FF4
:10096000991FAA1FBB1F2A95D2F70197A109B109A8
:100970008E219F21A023B1230097A105B10521F06D
:1009800081E090E0A0E0B0E09A01AB01282B392B88
:100990004A2B5B2BDA01C9018F779070A070B07081
:1009A00080349105A105B10539F427FF09C0205C09
:1009B0003F4F4F4F5F4F04C0215C3F4F4F4F5F4F42
:1009C000E0E0F0E02030A0E03A07A0E04A07A0E431
:1009D0005A0710F0E1E0F0E079018A0127C06038A1
:1009E000710564F5FB01E158FF4FD801C7018F770E
:1009F0009070A070B07080349105A105B10539F4F4
:100A0000E7FE0DC080E490E0A0E0B0E004C08FE31A
:100A100090E0A0E0B0E0E80EF91E0A1F1B1F17FFD0
:100A200005C016950795F794E794319687E01695DB
:100A30000795F794E7948A95D1F705C0EE24FF2433
:100A40008701EFEFF0E06E2F679566276795902F8F
:100A50009F77D794DD24D7948E2F8695492F462BE8
:100A6000582F5D29B701CA011F910F91FF90EF9098
:100A7000DF900895FC01DB01408151812281622FCA
:100A80006F7770E0221F2227221F9381892F880F02
:100A9000822B282F30E0991F9927991F11969C933C
:100AA000119721153105A9F541155105610571050C
:100AB00011F482E037C082E89FEF13969C938E93E7
:100AC00012979A01AB0167E0220F331F441F551F95
:100AD0006A95D1F783E08C930DC0220F331F441F1A
:100AE000551F12968D919C911397019713969C9385
:100AF0008E931297203080E0380780E0480780E42A
:100B0000580758F314962D933D934D935C93179784
:100B100008952F3F310579F441155105610571059F
:100B200019F484E08C93089564FF03C081E08C93F2
:100B300012C01C9210C02F57304013963C932E9336
:100B4000129783E08C9387E0440F551F661F771F31
:100B50008A95D1F7706414964D935D936D937C9351
:100B6000179708951F93DC01FB019C91923008F4C4
:100B700047C08081823008F443C0943051F411960C
:100B80001C91843099F58181682F70E0611B710997
:100B90003FC0843021F0923031F48230B9F181814C
:100BA000882389F12DC011961C9111978230F1F0A4
:100BB00081811817D9F412962D913C911397828157
:100BC00093818217930794F028173907BCF0149685
:100BD0008D919D910D90BC91A02D248135814681F0
:100BE0005781281739074A075B0718F4112341F08A
:100BF0000AC082179307A407B50740F4112319F020
:100C000061E070E005C06FEF7FEF02C060E070E070
:100C1000CB011F910895DF93CF930F92CDB7DEB72D
:100C200081E08983A3E5B0E0E3E5F0E080818F7B9C
:100C30008C93A3E5B0E0E3E5F0E08081877F8C93BF
:100C4000A9E5B0E0E9E5F0E080818E7F8C93E2E5F4
:100C5000F0E080EC8083A3E5B0E0E3E5F0E08081A4
:100C60008E7F8C93A3E5B0E0E3E5F0E080818260C5
:100C70008C93A3E5B0E0E3E5F0E080818B7F8C937B
:100C800089810F90CF91DF910895DF93CF930F92D9
:100C9000CDB7DEB78983ECE5F0E0898180830F90E2
:100CA000CF91DF9108950F931F93DF93CF93CDB72B
:100CB000DEB728970FB6F894DEBF0FBECDBF98877A
:100CC0008F831E821D8280E090E0A0E0B0E08983E7
:100CD0009A83AB83BC838F819885CC01A0E0B0E080
:100CE000BC01CD010E949D03DC01CB01BC01CD0103
:100CF00020E030E04AE750E40E941F02DC01CB0113
:100D000089839A83AB83BC830E940B0602E510E0C3
:100D100069817A818B819C810E944900DC01CB0131
:100D2000CC01A0E0B0E0BC01CD010E949D039B017D
:100D3000AC0169817A818B819C810E94C101DC01B7
:100D4000CB019C01AD0160E070E080E89FE30E9470
:100D5000C101DC01CB01BC01CD0120E030E040E865
:100D600053E40E941F02DC01CB01BC01CD010E94B3
:100D70004900DC01CB01F801808315C0E8E5F0E013
:100D80008081882F90E0817090700097B9F3A8E57A
:100D9000B0E0E8E5F0E0808181608C938D819E81F8
:100DA00001969E838D8369817A818B819C810E94CB
:100DB0004900DC01CB019C018D819E818217930744
:100DC000E8F21E821D8228960FB6F894DEBF0FBE91
:100DD000CDBFCF91DF911F910F910895DF93CF93F6
:100DE00000D000D000D0CDB7DEB79B838A836C8360
:100DF00081E089838A819B81009701F18C81282F72
:100E000030E03E832D838D819E818B30910531F0C2
:100E10002D813E812C30310541F00EC08A819B81AD
:100E200090936B0180936A010AC08A819B819093A1
:100E300069018093680103C0198201C01982898108
:100E400026960FB6F894DEBF0FBECDBFCF91DF91CF
:100E500008951F920F920FB60F9211242F933F9374
:100E60004F935F936F937F938F939F93AF93BF93B2
:100E7000EF93FF93DF93CF93CDB7DEB780916C01F3
:100E800090916D01019690936D0180936C0180911A
:100E90006C0190916D0127E28031920779F41092F4
:100EA0006D0110926C0180916A0190916B01009725
:100EB00029F0E0916A01F0916B010995CF91DF91E2
:100EC000FF91EF91BF91AF919F918F917F916F9122
:100ED0005F914F913F912F910F900FBE0F901F90F8
:100EE00018951F920F920FB60F9211242F933F93D4
:100EF0004F935F936F937F938F939F93AF93BF9322
:100F0000EF93FF93DF93CF93CDB7DEB780916E0160
:100F100090916F01019690936F0180936E01809183
:100F20006E0190916F012CE48B34920799F4E2E505
:100F3000F0E080EC808310926F0110926E0180913E
:100F4000680190916901009729F0E0916801F091A2
:100F500069010995CF91DF91FF91EF91BF91AF9119
:100F60009F918F917F916F915F914F913F912F91C1
:100F70000F900FBE0F901F901895DF93CF93CDB7B2
:100F8000DEB7AFE5B0E0EFE5F0E0808180688C93FC
:100F9000CF91DF910895DF93CF93CDB7DEB7AFE563
:100FA000B0E0EFE5F0E080818F778C93CF91DF9117
:100FB0000895DF93CF93CDB7DEB72B970FB6F89494
:100FC000DEBF0FBECDBF8A836B8381E089838A81B8
:100FD000282F30E03B872A878A859B8581309105C1
:100FE00009F485C02A853B852230310509F4F9C012
:100FF0008A859B85009709F02AC18B81282F30E0D4
:1010000039872887888599858130910561F1288500
:101010003985223031052CF488859985009769F04F
:1010200064C0288539852230310599F188859985F4
:101030008330910509F443C058C0A5E5B0E0E5E56B
:10104000F0E0808181608C93A5E5B0E0E5E5F0E01B
:10105000808182608C93ABE5B0E0EBE5F0E08081CD
:1010600080648C93F5C0A5E5B0E0E5E5F0E0808113
:101070008E7F8C93A5E5B0E0E5E5F0E080818260AD
:101080008C93ABE5B0E0EBE5F0E0808180648C937D
:10109000DFC0A5E5B0E0E5E5F0E0808181608C93FC
:1010A000A5E5B0E0E5E5F0E080818D7F8C93ABE5D0
:1010B000B0E0EBE5F0E0808180648C93C9C0A5E5E9
:1010C000B0E0E5E5F0E080818E7F8C93A5E5B0E0AF
:1010D000E5E5F0E080818D7F8C93ABE5B0E0EBE55A
:1010E000F0E0808180648C93B3C01982B1C08B81A1
:1010F000282F30E03F832E838E819F8181309105A0
:1011000061F12E813F81223031052CF48E819F8147
:10111000009769F064C02E813F812230310599F13A
:101120008E819F818330910509F443C058C0A5E5A5
:10113000B0E0E5E5F0E0808184608C93A5E5B0E067
:10114000E5E5F0E0808188608C93ABE5B0E0EBE50D
:10115000F0E0808180688C937BC0A5E5B0E0E5E598
:10116000F0E080818B7F8C93A5E5B0E0E5E5F0E0D1
:10117000808188608C93ABE5B0E0EBE5F0E08081A6
:1011800080688C9365C0A5E5B0E0E5E5F0E080817E
:1011900084608C93A5E5B0E0E5E5F0E08081877F91
:1011A0008C93ABE5B0E0EBE5F0E0808180688C9358
:1011B0004FC0A5E5B0E0E5E5F0E080818B7F8C9342
:1011C000A5E5B0E0E5E5F0E08081877F8C93ABE5B5
:1011D000B0E0EBE5F0E0808180688C9339C0198243
:1011E00037C08B81282F30E03D832C838C819D81FB
:1011F000009731F02C813D8121303105B9F025C0B7
:10120000A5E5B0E0E5E5F0E0808184608C93A5E59C
:10121000B0E0E5E5F0E0808188608C93ABE5B0E07C
:10122000EBE5F0E0808180688C9312C0A4E5B0E02B
:10123000E4E5F0E080818F7B8C93ABE5B0E0EBE5FB
:10124000F0E0808180628C9303C0198201C0198212
:1012500089812B960FB6F894DEBF0FBECDBFCF911C
:10126000DF910895DF93CF9300D000D0CDB7DEB7E4
:101270008A8381E089838A81282F30E03C832B8315
:101280008B819C818130910589F02B813C812230BA
:101290003105A1F08B819C810097C1F4ABE5B0E0F2
:1012A000EBE5F0E080818F7B8C9311C0ABE5B0E083
:1012B000EBE5F0E080818F778C9309C0ABE5B0E07F
:1012C000EBE5F0E080818F7D8C9301C019828981EC
:1012D0000F900F900F900F90CF91DF910895DF93B3
:1012E000CF9300D000D0CDB7DEB79B838A836C83C9
:1012F00081E089838A819B81009781F08C81833092
:1013000068F48C81882F90E0880F991FFC01E059C8
:10131000FE4F8A819B819183808301C019828981DC
:101320000F900F900F900F90CF91DF9108951F9223
:101330000F920FB60F9211242F933F934F935F9309
:101340006F937F938F939F93AF93BF93EF93FF938D
:10135000DF93CF93CDB7DEB780917001909171018B
:10136000009729F0E0917001F09171010995CF91FA
:10137000DF91FF91EF91BF91AF919F918F917F91FD
:101380006F915F914F913F912F910F900FBE0F90F2
:101390001F9018951F920F920FB60F9211242F9342
:1013A0003F934F935F936F937F938F939F93AF93ED
:1013B000BF93EF93FF93DF93CF93CDB7DEB78091C9
:1013C000720190917301009729F0E0917201F09100
:1013D00073010995CF91DF91FF91EF91BF91AF918B
:1013E0009F918F917F916F915F914F913F912F913D
:1013F0000F900FBE0F901F9018951F920F920FB66F
:101400000F9211242F933F934F935F936F937F938A
:101410008F939F93AF93BF93EF93FF93DF93CF93FC
:10142000CDB7DEB78091740190917501009729F0D6
:10143000E0917401F09175010995CF91DF91FF91D1
:10144000EF91BF91AF919F918F917F916F915F913C
:101450004F913F912F910F900FBE0F901F901895B5
:10146000DF93CF93CDB7DEB7EAE3F0E08FEF808371
:10147000E7E3F0E08FEF8083E4E3F0E08FEF808339
:10148000E1E3F0E083EF8083EBE3F0E01082E8E358
:10149000F0E01082E5E3F0E01082E2E3F0E0108299
:1014A000CF91DF910895DF93CF93CDB7DEB72E971D
:1014B0000FB6F894DEBF0FBECDBF8A836B834C831B
:1014C00081E089838A81843008F00CC18B81883067
:1014D00008F008C18C81813021F08C81882309F0CB
:1014E00001C18A81282F30E03E872D878D859E851A
:1014F0008130910509F44FC02D853E85223031059C
:101500002CF48D859E85009771F0EDC02D853E856C
:101510002230310509F477C08D859E858330910591
:1015200009F4A9C0E0C08C81282F30E03C872B87CC
:101530008B859C850097D1F02B853C85213031052A
:1015400009F0D1C0AAE3B0E0EAE3F0E08081482FDF
:101550008B81282F30E081E090E0022E02C0880FBE
:10156000991F0A94E2F7842B8C93BDC0AAE3B0E0E4
:10157000EAE3F0E08081482F8B81282F30E081E082
:1015800090E0022E02C0880F991F0A94E2F780951E
:1015900084238C93A8C08C81282F30E03A87298738
:1015A00089859A850097D1F029853A8521303105C2
:1015B00009F099C0A7E3B0E0E7E3F0E08081482FAD
:1015C0008B81282F30E081E090E0022E02C0880F4E
:1015D000991F0A94E2F7842B8C9385C0A7E3B0E0AF
:1015E000E7E3F0E08081482F8B81282F30E081E015
:1015F00090E0022E02C0880F991F0A94E2F78095AE
:1016000084238C9370C08C81282F30E038872F83FF
:101610008F8198850097D1F02F8138852130310551
:1016200009F061C0A4E3B0E0E4E3F0E08081482F7A
:101630008B81282F30E081E090E0022E02C0880FDD
:10164000991F0A94E2F7842B8C934DC0A4E3B0E079
:10165000E4E3F0E08081482F8B81282F30E081E0A7
:1016600090E0022E02C0880F991F0A94E2F780953D
:1016700084238C9338C08C81282F30E03E832D83C7
:101680008D819E810097C9F02D813E8121303105E9
:1016900051F5A1E3B0E0E1E3F0E08081482F8B81D8
:1016A000282F30E081E090E0022E02C0880F991FC1
:1016B0000A94E2F7842B8C9316C0A1E3B0E0E1E337
:1016C000F0E08081482F8B81282F30E081E090E08E
:1016D000022E02C0880F991F0A94E2F78095842396
:1016E0008C9301C0198289812E960FB6F894DEBFC3
:1016F0000FBECDBFCF91DF910895DF93CF93CDB7CC
:10170000DEB72E970FB6F894DEBF0FBECDBF8A832B
:101710006B834C8381E089838B81883008F008C11A
:101720008A81282F30E03E872D878D859E858130E8
:10173000910509F450C02D853E85223031052CF4E9
:101740008D859E85009771F0F1C02D853E852230F4
:10175000310509F479C08D859E858330910509F4A2
:10176000ACC0E4C08C81282F30E03C872B878B8570
:101770009C850097C9F02B853C852130310549F5C2
:10178000ABE3B0E0EBE3F0E08081482F8B81282FC2
:1017900030E081E090E0022E02C0880F991F0A9489
:1017A000E2F7842B8C93C5C0ABE3B0E0EBE3F0E051
:1017B0008081482F8B81282F30E081E090E0022E3D
:1017C00002C0880F991F0A94E2F7809584238C93B6
:1017D000B0C01982AEC08C81282F30E03A872987AB
:1017E00089859A850097C9F029853A852130310588
:1017F00049F5A8E3B0E0E8E3F0E08081482F8B8171
:10180000282F30E081E090E0022E02C0880F991F5F
:101810000A94E2F7842B8C938CC0A8E3B0E0E8E351
:10182000F0E08081482F8B81282F30E081E090E02C
:10183000022E02C0880F991F0A94E2F78095842334
:101840008C9377C0198275C08C81282F30E038873F
:101850002F838F8198850097C9F02F81388521309B
:10186000310549F5A5E3B0E0E5E3F0E08081482FDC
:101870008B81282F30E081E090E0022E02C0880F9B
:10188000991F0A94E2F7842B8C9353C0A5E3B0E030
:10189000E5E3F0E08081482F8B81282F30E081E064
:1018A00090E0022E02C0880F991F0A94E2F78095FB
:1018B00084238C933EC019823CC08C81282F30E059
:1018C0003E832D838D819E810097C9F02D813E81BD
:1018D0002130310549F5A2E3B0E0E2E3F0E0808198
:1018E000482F8B81282F30E081E090E0022E02C04B
:1018F000880F991F0A94E2F7842B8C931AC0A2E3F5
:10190000B0E0E2E3F0E08081482F8B81282F30E0C7
:1019100081E090E0022E02C0880F991F0A94E2F73E
:10192000809584238C9305C0198203C0198201C05D
:10193000198289812E960FB6F894DEBF0FBECDBFF7
:10194000CF91DF910895DF93CF93CDB7DEB727977F
:101950000FB6F894DEBF0FBECDBF8A836B835D8365
:101960004C8381E089838B81883008F0DEC08C81D4
:101970009D81009709F4D9C08A81282F30E03F83E8
:101980002E834E815F814130510509F445C08E811F
:101990009F818230910534F42E813F8121153105DC
:1019A00071F0C1C04E815F814230510509F461C0C0
:1019B0008E819F818330910509F488C0B4C0E9E32A
:1019C000F0E08081482F50E08B81282F30E081E0CB
:1019D00090E002C0880F991F2A95E2F79A01282308
:1019E00039238B81882F90E0A90102C05595479536
:1019F0008A95E2F7CA01EC81FD818083EC81FD814B
:101A00008081882321F4EC81FD8110828FC0EC81DC
:101A1000FD8181E080838AC0E6E3F0E08081482F89
:101A200050E08B81282F30E081E090E002C0880FE9
:101A3000991F2A95E2F79A01282339238B81882F51
:101A400090E0A90102C0559547958A95E2F7CA0131
:101A5000EC81FD818083EC81FD818081882321F4EC
:101A6000EC81FD81108262C0EC81FD8181E0808388
:101A70005DC0E3E3F0E08081482F50E08B81282FA8
:101A800030E081E090E002C0880F991F2A95E2F7CC
:101A90009A01282339238B81882F90E0A90102C065
:101AA000559547958A95E2F7CA01EC81FD818083BF
:101AB000EC81FD818081882321F4EC81FD811082FD
:101AC00035C0EC81FD8181E0808330C0E0E3F0E04F
:101AD0008081482F50E08B81282F30E081E090E01A
:101AE00002C0880F991F2A95E2F79A01282339230B
:101AF0008B81882F90E0A90102C0559547958A9562
:101B0000E2F7CA01EC81FD818083EC81FD81808157
:101B1000882321F4EC81FD81108208C0EC81FD81D5
:101B200081E0808303C0198201C0198289812796D0
:101B30000FB6F894DEBF0FBECDBFCF91DF910895F1
:101B4000DF93CF93CDB7DEB72D970FB6F894DEBFF6
:101B50000FBECDBF8A836B8381E089838B81813007
:101B600021F08B81882309F086C08A81282F30E0FC
:101B70003D872C878C859D858130910579F12C8559
:101B80003D85223031052CF48C859D85009769F0C8
:101B900070C02C853D8522303105C9F18C859D852D
:101BA0008330910509F44CC064C08B81282F30E04C
:101BB0003B872A878A859B85009751F02A853B853C
:101BC0002130310549F4EAE3F0E08FEF808354C01F
:101BD000EAE3F0E0108250C019824EC08B81282FBA
:101BE00030E03987288788859985009751F02885C6
:101BF00039852130310549F4E7E3F0E08FEF808348
:101C00003BC0E7E3F0E0108237C0198235C08B811A
:101C1000282F30E03F832E838E819F81009751F0E3
:101C20002E813F812130310549F4E4E3F0E08FEF6C
:101C3000808322C0E4E3F0E010821EC019821CC041
:101C40008B81282F30E03D832C838C819D810097F0
:101C500051F02C813D812130310549F4E1E3F0E080
:101C60008FEF808309C0E1E3F0E0108205C01982A4
:101C700003C0198201C0198289812D960FB6F8948C
:101C8000DEBF0FBECDBFCF91DF910895DF93CF931D
:101C900000D000D00F92CDB7DEB78A836B8381E08E
:101CA00089838A81282F30E03D832C838C819D811C
:101CB00081309105D1F02C813D81223031052CF409
:101CC0008C819D81009761F01FC02C813D81223065
:101CD000310581F08C819D818330910581F014C0A4
:101CE000EBE3F0E08B81808310C0E8E3F0E08B81D0
:101CF00080830BC0E5E3F0E08B81808306C0E2E3E4
:101D0000F0E08B81808301C0198289810F900F9050
:101D10000F900F900F90CF91DF910895DF93CF93A5
:101D200000D000D000D0CDB7DEB78A837C836B8330
:101D300081E089838B819C810097E9F18A81282F3A
:101D400030E03E832D838D819E8181309105E1F0CD
:101D50002D813E81223031052CF48D819E810097AA
:101D600061F027C02D813E8122303105A1F08D81A7
:101D70009E8183309105B1F01CC0E9E3F0E08081E1
:101D8000EB81FC81808319C0E6E3F0E08081EB8188
:101D9000FC81808312C0E3E3F0E08081EB81FC8171
:101DA00080830BC0E0E3F0E08081EB81FC818083E5
:101DB00004C0198202C082E08983898126960FB609
:101DC000F894DEBF0FBECDBFCF91DF910895DF93B2
:101DD000CF93CDB7DEB780E062E041E00E947D0B9B
:101DE00083E08093770182E060E041E00E947D0B18
:101DF00088E893E10E94530680E062E040E00E94A0
:101E00007D0B82E060E040E00E947D0B0E94280F85
:101E100080E060E041E00E947D0B81E080937701EB
:101E200082E062E041E00E947D0B88E893E10E943D
:101E3000530680E060E040E00E947D0B82E062E0BB
:101E400040E00E947D0B0E94280FCF91DF91089502
:101E5000DF93CF9300D0CDB7DEB71A82198224C0AA
:101E600082E061E041E00E947D0B82E08093770197
:101E700080E061E041E00E947D0B88E592E00E94F5
:101E8000530682E061E040E00E947D0B80E061E06B
:101E900040E00E947D0B88E092E00E945306898119
:101EA0009A8101969A83898389819A8185309105E7
:101EB000B8F20F900F90CF91DF910895DF93CF93F9
:101EC00000D0CDB7DEB71A8219821AC080E061E077
:101ED00041E00E947D0B82E08093770188E592E0EB
:101EE0000E94530680E061E040E00E947D0B88E0A4
:101EF00092E00E94530689819A8101969A83898390
:101F000089819A818530910508F30F900F90CF91C8
:101F1000DF910895DF93CF9300D0CDB7DEB78091E6
:101F20007701282F30E03A83298389819A81823092
:101F3000910539F029813A812330310509F44FC0E8
:101F40008DC082E060E040E00E947D0B80E061E0B7
:101F500040E00E947D0B0E94280F82E061E040E09B
:101F60000E947D0B80E061E040E00E947D0B82E0FA
:101F700062E041E00E947D0B80E060E041E00E9471
:101F80007D0B88E893E10E94530680E060E040E02A
:101F90000E947D0B0E945E0F82E062E040E00E94A2
:101FA0007D0B80E061E040E00E947D0B82E060E01C
:101FB00041E00E947D0B80E062E041E00E947D0BE9
:101FC00088E893E10E94530680E062E040E00E94CE
:101FD0007D0B82E060E040E00E947D0B3FC082E02C
:101FE00060E040E00E947D0B80E062E040E00E9403
:101FF0007D0B0E94280F82E061E040E00E947D0B93
:1020000080E061E040E00E947D0B82E062E041E020
:102010000E947D0B80E060E041E00E947D0B88E83B
:1020200093E10E94530680E060E040E00E947D0B57
:102030000E945E0F80E061E040E00E947D0B82E044
:1020400062E040E00E947D0B82E060E041E00E949F
:102050007D0B80E062E041E00E947D0B0F900F90CD
:10206000CF91DF910895DF93CF93CDB7DEB7809105
:102070007601882349F482E062E041E00E947D0B12
:1020800081E08093760107C082E062E040E00E9438
:102090007D0B10927601CF91DF910895DF93CF935E
:1020A0000F92CDB7DEB719820E94300A0E94BD0799
:1020B0008AE89FE060E00E946F0980E060E00E9493
:1020C000D9070E94E70EFDCF2F923F924F925F9269
:1020D0006F927F928F929F92AF92BF92CF92DF9238
:1020E000EF92FF920F931F93CF93DF93CDB7DEB79D
:1020F000CA1BDB0B0FB6F894DEBF0FBECDBF099431
:102100002A88398848885F846E847D848C849B8487
:10211000AA84B984C884DF80EE80FD800C811B8195
:10212000AA81B981CE0FD11D0FB6F894DEBF0FBEC4
:0A213000CDBFED010895F894FFCF34
:10213A000000000000000000000102020303030384
:10214A00040404040404040405050505050505053D
:10215A00050505050505050506060606060606061D
:10216A000606060606060606060606060606060605
:10217A0006060606060606060707070707070707ED
:10218A0007070707070707070707070707070707D5
:10219A0007070707070707070707070707070707C5
:1021AA0007070707070707070707070707070707B5
:1021BA00070707070707070708080808080808089D
:1021CA000808080808080808080808080808080885
:1021DA000808080808080808080808080808080875
:1021EA000808080808080808080808080808080865
:1021FA000808080808080808080808080808080855
:10220A000808080808080808080808080808080844
:10221A000808080808080808080808080808080834
:10222A000808080808080808080808080808080824
:08223A0008080808080808085C
:00000001FF
